{
  "_format": "hh-sol-artifact-1",
  "contractName": "MinimumVault",
  "sourceName": "contracts/Vaults/MinimumVault.sol",
  "abi": [
    {
      "inputs": [
        {
          "internalType": "contract IStrategy",
          "name": "_strategy",
          "type": "address"
        },
        {
          "internalType": "string",
          "name": "name_",
          "type": "string"
        },
        {
          "internalType": "string",
          "name": "symbol_",
          "type": "string"
        },
        {
          "internalType": "uint256",
          "name": "_approvalDelay",
          "type": "uint256"
        }
      ],
      "stateMutability": "nonpayable",
      "type": "constructor"
    },
    {
      "anonymous": false,
      "inputs": [
        {
          "indexed": true,
          "internalType": "address",
          "name": "owner",
          "type": "address"
        },
        {
          "indexed": true,
          "internalType": "address",
          "name": "spender",
          "type": "address"
        },
        {
          "indexed": false,
          "internalType": "uint256",
          "name": "value",
          "type": "uint256"
        }
      ],
      "name": "Approval",
      "type": "event"
    },
    {
      "anonymous": false,
      "inputs": [
        {
          "indexed": true,
          "internalType": "address",
          "name": "from",
          "type": "address"
        },
        {
          "indexed": true,
          "internalType": "address",
          "name": "to",
          "type": "address"
        },
        {
          "indexed": false,
          "internalType": "uint256",
          "name": "value",
          "type": "uint256"
        }
      ],
      "name": "Transfer",
      "type": "event"
    },
    {
      "inputs": [
        {
          "internalType": "address",
          "name": "owner",
          "type": "address"
        },
        {
          "internalType": "address",
          "name": "spender",
          "type": "address"
        }
      ],
      "name": "allowance",
      "outputs": [
        {
          "internalType": "uint256",
          "name": "",
          "type": "uint256"
        }
      ],
      "stateMutability": "view",
      "type": "function"
    },
    {
      "inputs": [
        {
          "internalType": "address",
          "name": "spender",
          "type": "address"
        },
        {
          "internalType": "uint256",
          "name": "amount",
          "type": "uint256"
        }
      ],
      "name": "approve",
      "outputs": [
        {
          "internalType": "bool",
          "name": "",
          "type": "bool"
        }
      ],
      "stateMutability": "nonpayable",
      "type": "function"
    },
    {
      "inputs": [],
      "name": "available",
      "outputs": [
        {
          "internalType": "uint256",
          "name": "",
          "type": "uint256"
        }
      ],
      "stateMutability": "view",
      "type": "function"
    },
    {
      "inputs": [],
      "name": "balance",
      "outputs": [
        {
          "internalType": "uint256",
          "name": "",
          "type": "uint256"
        }
      ],
      "stateMutability": "view",
      "type": "function"
    },
    {
      "inputs": [
        {
          "internalType": "address",
          "name": "account",
          "type": "address"
        }
      ],
      "name": "balanceOf",
      "outputs": [
        {
          "internalType": "uint256",
          "name": "",
          "type": "uint256"
        }
      ],
      "stateMutability": "view",
      "type": "function"
    },
    {
      "inputs": [],
      "name": "decimals",
      "outputs": [
        {
          "internalType": "uint8",
          "name": "",
          "type": "uint8"
        }
      ],
      "stateMutability": "view",
      "type": "function"
    },
    {
      "inputs": [
        {
          "internalType": "address",
          "name": "spender",
          "type": "address"
        },
        {
          "internalType": "uint256",
          "name": "subtractedValue",
          "type": "uint256"
        }
      ],
      "name": "decreaseAllowance",
      "outputs": [
        {
          "internalType": "bool",
          "name": "",
          "type": "bool"
        }
      ],
      "stateMutability": "nonpayable",
      "type": "function"
    },
    {
      "inputs": [
        {
          "internalType": "uint256",
          "name": "_amount",
          "type": "uint256"
        }
      ],
      "name": "deposit",
      "outputs": [],
      "stateMutability": "nonpayable",
      "type": "function"
    },
    {
      "inputs": [],
      "name": "depositAll",
      "outputs": [],
      "stateMutability": "nonpayable",
      "type": "function"
    },
    {
      "inputs": [],
      "name": "earn",
      "outputs": [],
      "stateMutability": "nonpayable",
      "type": "function"
    },
    {
      "inputs": [
        {
          "internalType": "address",
          "name": "spender",
          "type": "address"
        },
        {
          "internalType": "uint256",
          "name": "addedValue",
          "type": "uint256"
        }
      ],
      "name": "increaseAllowance",
      "outputs": [
        {
          "internalType": "bool",
          "name": "",
          "type": "bool"
        }
      ],
      "stateMutability": "nonpayable",
      "type": "function"
    },
    {
      "inputs": [],
      "name": "name",
      "outputs": [
        {
          "internalType": "string",
          "name": "",
          "type": "string"
        }
      ],
      "stateMutability": "view",
      "type": "function"
    },
    {
      "inputs": [],
      "name": "stratApprovalDelay",
      "outputs": [
        {
          "internalType": "uint256",
          "name": "",
          "type": "uint256"
        }
      ],
      "stateMutability": "view",
      "type": "function"
    },
    {
      "inputs": [],
      "name": "stratCandidate",
      "outputs": [
        {
          "internalType": "address",
          "name": "implementation",
          "type": "address"
        },
        {
          "internalType": "uint256",
          "name": "proposedTime",
          "type": "uint256"
        }
      ],
      "stateMutability": "view",
      "type": "function"
    },
    {
      "inputs": [],
      "name": "strategy",
      "outputs": [
        {
          "internalType": "contract IStrategy",
          "name": "",
          "type": "address"
        }
      ],
      "stateMutability": "view",
      "type": "function"
    },
    {
      "inputs": [],
      "name": "symbol",
      "outputs": [
        {
          "internalType": "string",
          "name": "",
          "type": "string"
        }
      ],
      "stateMutability": "view",
      "type": "function"
    },
    {
      "inputs": [],
      "name": "totalSupply",
      "outputs": [
        {
          "internalType": "uint256",
          "name": "",
          "type": "uint256"
        }
      ],
      "stateMutability": "view",
      "type": "function"
    },
    {
      "inputs": [
        {
          "internalType": "address",
          "name": "recipient",
          "type": "address"
        },
        {
          "internalType": "uint256",
          "name": "amount",
          "type": "uint256"
        }
      ],
      "name": "transfer",
      "outputs": [
        {
          "internalType": "bool",
          "name": "",
          "type": "bool"
        }
      ],
      "stateMutability": "nonpayable",
      "type": "function"
    },
    {
      "inputs": [
        {
          "internalType": "address",
          "name": "sender",
          "type": "address"
        },
        {
          "internalType": "address",
          "name": "recipient",
          "type": "address"
        },
        {
          "internalType": "uint256",
          "name": "amount",
          "type": "uint256"
        }
      ],
      "name": "transferFrom",
      "outputs": [
        {
          "internalType": "bool",
          "name": "",
          "type": "bool"
        }
      ],
      "stateMutability": "nonpayable",
      "type": "function"
    },
    {
      "inputs": [],
      "name": "want",
      "outputs": [
        {
          "internalType": "contract IERC20",
          "name": "",
          "type": "address"
        }
      ],
      "stateMutability": "view",
      "type": "function"
    },
    {
      "inputs": [
        {
          "internalType": "uint256",
          "name": "_shares",
          "type": "uint256"
        }
      ],
      "name": "withdraw",
      "outputs": [],
      "stateMutability": "nonpayable",
      "type": "function"
    },
    {
      "inputs": [],
      "name": "withdrawAll",
      "outputs": [],
      "stateMutability": "nonpayable",
      "type": "function"
    }
  ],
  "bytecode": "0x60a06040523480156200001157600080fd5b5060405162001a9238038062001a92833981810160405260808110156200003757600080fd5b8151602083018051604051929492938301929190846401000000008211156200005f57600080fd5b9083019060208201858111156200007557600080fd5b82516401000000008111828201881017156200009057600080fd5b82525081516020918201929091019080838360005b83811015620000bf578181015183820152602001620000a5565b50505050905090810190601f168015620000ed5780820380516001836020036101000a031916815260200191505b50604052602001805160405193929190846401000000008211156200011157600080fd5b9083019060208201858111156200012757600080fd5b82516401000000008111828201881017156200014257600080fd5b82525081516020918201929091019080838360005b838110156200017157818101518382015260200162000157565b50505050905090810190601f1680156200019f5780820380516001836020036101000a031916815260200191505b5060405260209081015185519093508592508491620001c4916003918501906200021c565b508051620001da9060049060208401906200021c565b50506005805460ff19166012179055506001600655600980546001600160a01b039095166001600160a01b0319909516949094179093555050608052620002b8565b828054600181600116156101000203166002900490600052602060002090601f016020900481019282601f106200025f57805160ff19168380011785556200028f565b828001600101855582156200028f579182015b828111156200028f57825182559160200191906001019062000272565b506200029d929150620002a1565b5090565b5b808211156200029d5760008155600101620002a2565b6080516117bf620002d360003980610af452506117bf6000f3fe608060405234801561001057600080fd5b50600436106101425760003560e01c8063853828b6116100b8578063b69ef8a81161007c578063b69ef8a8146103aa578063b6b55f25146103b2578063bf467ddc146103cf578063d389800f146103d7578063dd62ed3e146103df578063de5f62681461040d57610142565b8063853828b61461033a57806395d89b4114610342578063a457c2d71461034a578063a8c62e7614610376578063a9059cbb1461037e57610142565b80632e1a7d4d1161010a5780632e1a7d4d14610278578063313ce5671461029757806339509351146102b557806348a0d754146102e157806370a08231146102e957806376dfabb81461030f57610142565b806306fdde0314610147578063095ea7b3146101c457806318160ddd146102045780631f1fcd511461021e57806323b872dd14610242575b600080fd5b61014f610415565b6040805160208082528351818301528351919283929083019185019080838360005b83811015610189578181015183820152602001610171565b50505050905090810190601f1680156101b65780820380516001836020036101000a031916815260200191505b509250505060405180910390f35b6101f0600480360360408110156101da57600080fd5b506001600160a01b0381351690602001356104ab565b604080519115158252519081900360200190f35b61020c6104c9565b60408051918252519081900360200190f35b6102266104cf565b604080516001600160a01b039092168252519081900360200190f35b6101f06004803603606081101561025857600080fd5b506001600160a01b03813581169160208101359091169060400135610545565b6102956004803603602081101561028e57600080fd5b50356105cd565b005b61029f6106c3565b6040805160ff9092168252519081900360200190f35b6101f0600480360360408110156102cb57600080fd5b506001600160a01b0381351690602001356106cc565b61020c61071a565b61020c600480360360208110156102ff57600080fd5b50356001600160a01b0316610770565b61031761078b565b604080516001600160a01b03909316835260208301919091528051918290030190f35b6102956107a0565b61014f6107b3565b6101f06004803603604081101561036057600080fd5b506001600160a01b038135169060200135610814565b61022661087c565b6101f06004803603604081101561039457600080fd5b506001600160a01b03813516906020013561088b565b61020c61089f565b610295600480360360208110156103c857600080fd5b50356109a9565b61020c610af2565b610295610b16565b61020c600480360360408110156103f557600080fd5b506001600160a01b0381358116916020013516610ba0565b610295610bcb565b60038054604080516020601f60026000196101006001881615020190951694909404938401819004810282018101909252828152606093909290918301828280156104a15780601f10610476576101008083540402835291602001916104a1565b820191906000526020600020905b81548152906001019060200180831161048457829003601f168201915b5050505050905090565b60006104bf6104b8610c53565b8484610c57565b5060015b92915050565b60025490565b60095460408051631f1fcd5160e01b815290516000926001600160a01b031691631f1fcd51916004808301926020929190829003018186803b15801561051457600080fd5b505afa158015610528573d6000803e3d6000fd5b505050506040513d602081101561053e57600080fd5b5051905090565b6000610552848484610d43565b6105c28461055e610c53565b6105bd856040518060600160405280602881526020016116a9602891396001600160a01b038a1660009081526001602052604081209061059c610c53565b6001600160a01b031681526020810191909152604001600020549190610e9e565b610c57565b5060015b9392505050565b60006105f26105da6104c9565b6105ec846105e661089f565b90610f35565b90610f8e565b90506105fe3383610ff5565b600061060861071a565b9050808211156106a157600061061e83836110f1565b60095460408051632e1a7d4d60e01b81526004810184905290519293506001600160a01b0390911691632e1a7d4d9160248082019260009290919082900301818387803b15801561066e57600080fd5b505af1158015610682573d6000803e3d6000fd5b50505050600061069061071a565b90508084111561069e578093505b50505b6106be33836106ae6104cf565b6001600160a01b0316919061114e565b505050565b60055460ff1690565b60006104bf6106d9610c53565b846105bd85600160006106ea610c53565b6001600160a01b03908116825260208083019390935260409182016000908120918c1681529252902054906111a0565b60006107246104cf565b6001600160a01b03166370a08231306040518263ffffffff1660e01b815260040180826001600160a01b0316815260200191505060206040518083038186803b15801561051457600080fd5b6001600160a01b031660009081526020819052604090205490565b6007546008546001600160a01b039091169082565b6107b16107ac33610770565b6105cd565b565b60048054604080516020601f60026000196101006001881615020190951694909404938401819004810282018101909252828152606093909290918301828280156104a15780601f10610476576101008083540402835291602001916104a1565b60006104bf610821610c53565b846105bd85604051806060016040528060258152602001611765602591396001600061084b610c53565b6001600160a01b03908116825260208083019390935260409182016000908120918d16815292529020549190610e9e565b6009546001600160a01b031681565b60006104bf610898610c53565b8484610d43565b60006109a4600960009054906101000a90046001600160a01b03166001600160a01b031663ad7a672f6040518163ffffffff1660e01b815260040160206040518083038186803b1580156108f257600080fd5b505afa158015610906573d6000803e3d6000fd5b505050506040513d602081101561091c57600080fd5b50516109266104cf565b6001600160a01b03166370a08231306040518263ffffffff1660e01b815260040180826001600160a01b0316815260200191505060206040518083038186803b15801561097257600080fd5b505afa158015610986573d6000803e3d6000fd5b505050506040513d602081101561099c57600080fd5b5051906111a0565b905090565b60026006541415610a01576040805162461bcd60e51b815260206004820152601f60248201527f5265656e7472616e637947756172643a207265656e7472616e742063616c6c00604482015290519081900360640190fd5b600260065560095460408051632b9ff78560e11b815290516001600160a01b039092169163573fef0a9160048082019260009290919082900301818387803b158015610a4c57600080fd5b505af1158015610a60573d6000803e3d6000fd5b505050506000610a6e61089f565b9050610a8f333084610a7e6104cf565b6001600160a01b03169291906111fa565b610a97610b16565b6000610aa161089f565b9050610aad81836110f1565b92506000610ab96104c9565b610ac4575082610add565b610ada836105ec610ad36104c9565b8790610f35565b90505b610ae73382611254565b505060016006555050565b7f000000000000000000000000000000000000000000000000000000000000000081565b600954610b36906001600160a01b0316610b2e61071a565b6106ae6104cf565b600960009054906101000a90046001600160a01b03166001600160a01b031663d0e30db06040518163ffffffff1660e01b8152600401600060405180830381600087803b158015610b8657600080fd5b505af1158015610b9a573d6000803e3d6000fd5b50505050565b6001600160a01b03918216600090815260016020908152604080832093909416825291909152205490565b6107b1610bd66104cf565b6001600160a01b03166370a08231336040518263ffffffff1660e01b815260040180826001600160a01b0316815260200191505060206040518083038186803b158015610c2257600080fd5b505afa158015610c36573d6000803e3d6000fd5b505050506040513d6020811015610c4c57600080fd5b50516109a9565b3390565b6001600160a01b038316610c9c5760405162461bcd60e51b81526004018080602001828103825260248152602001806117176024913960400191505060405180910390fd5b6001600160a01b038216610ce15760405162461bcd60e51b815260040180806020018281038252602281526020018061161a6022913960400191505060405180910390fd5b6001600160a01b03808416600081815260016020908152604080832094871680845294825291829020859055815185815291517f8c5be1e5ebec7d5bd14f71427d1e84f3dd0314c0f7b2291e5b200ac8c7c3b9259281900390910190a3505050565b6001600160a01b038316610d885760405162461bcd60e51b81526004018080602001828103825260258152602001806116f26025913960400191505060405180910390fd5b6001600160a01b038216610dcd5760405162461bcd60e51b81526004018080602001828103825260238152602001806115d56023913960400191505060405180910390fd5b610dd88383836106be565b610e158160405180606001604052806026815260200161163c602691396001600160a01b0386166000908152602081905260409020549190610e9e565b6001600160a01b038085166000908152602081905260408082209390935590841681522054610e4490826111a0565b6001600160a01b038084166000818152602081815260409182902094909455805185815290519193928716927fddf252ad1be2c89b69c2b068fc378daa952ba7f163c4a11628f55a4df523b3ef92918290030190a3505050565b60008184841115610f2d5760405162461bcd60e51b81526004018080602001828103825283818151815260200191508051906020019080838360005b83811015610ef2578181015183820152602001610eda565b50505050905090810190601f168015610f1f5780820380516001836020036101000a031916815260200191505b509250505060405180910390fd5b505050900390565b600082610f44575060006104c3565b82820282848281610f5157fe5b04146105c65760405162461bcd60e51b81526004018080602001828103825260218152602001806116886021913960400191505060405180910390fd5b6000808211610fe4576040805162461bcd60e51b815260206004820152601a60248201527f536166654d6174683a206469766973696f6e206279207a65726f000000000000604482015290519081900360640190fd5b818381610fed57fe5b049392505050565b6001600160a01b03821661103a5760405162461bcd60e51b81526004018080602001828103825260218152602001806116d16021913960400191505060405180910390fd5b611046826000836106be565b611083816040518060600160405280602281526020016115f8602291396001600160a01b0385166000908152602081905260409020549190610e9e565b6001600160a01b0383166000908152602081905260409020556002546110a990826110f1565b6002556040805182815290516000916001600160a01b038516917fddf252ad1be2c89b69c2b068fc378daa952ba7f163c4a11628f55a4df523b3ef9181900360200190a35050565b600082821115611148576040805162461bcd60e51b815260206004820152601e60248201527f536166654d6174683a207375627472616374696f6e206f766572666c6f770000604482015290519081900360640190fd5b50900390565b604080516001600160a01b038416602482015260448082018490528251808303909101815260649091019091526020810180516001600160e01b031663a9059cbb60e01b1790526106be908490611344565b6000828201838110156105c6576040805162461bcd60e51b815260206004820152601b60248201527f536166654d6174683a206164646974696f6e206f766572666c6f770000000000604482015290519081900360640190fd5b604080516001600160a01b0380861660248301528416604482015260648082018490528251808303909101815260849091019091526020810180516001600160e01b03166323b872dd60e01b179052610b9a908590611344565b6001600160a01b0382166112af576040805162461bcd60e51b815260206004820152601f60248201527f45524332303a206d696e7420746f20746865207a65726f206164647265737300604482015290519081900360640190fd5b6112bb600083836106be565b6002546112c890826111a0565b6002556001600160a01b0382166000908152602081905260409020546112ee90826111a0565b6001600160a01b0383166000818152602081815260408083209490945583518581529351929391927fddf252ad1be2c89b69c2b068fc378daa952ba7f163c4a11628f55a4df523b3ef9281900390910190a35050565b6060611399826040518060400160405280602081526020017f5361666545524332303a206c6f772d6c6576656c2063616c6c206661696c6564815250856001600160a01b03166113f59092919063ffffffff16565b8051909150156106be578080602001905160208110156113b857600080fd5b50516106be5760405162461bcd60e51b815260040180806020018281038252602a81526020018061173b602a913960400191505060405180910390fd5b6060611404848460008561140c565b949350505050565b60608247101561144d5760405162461bcd60e51b81526004018080602001828103825260268152602001806116626026913960400191505060405180910390fd5b61145685611568565b6114a7576040805162461bcd60e51b815260206004820152601d60248201527f416464726573733a2063616c6c20746f206e6f6e2d636f6e7472616374000000604482015290519081900360640190fd5b60006060866001600160a01b031685876040518082805190602001908083835b602083106114e65780518252601f1990920191602091820191016114c7565b6001836020036101000a03801982511681845116808217855250505050505090500191505060006040518083038185875af1925050503d8060008114611548576040519150601f19603f3d011682016040523d82523d6000602084013e61154d565b606091505b509150915061155d82828661156e565b979650505050505050565b3b151590565b6060831561157d5750816105c6565b82511561158d5782518084602001fd5b60405162461bcd60e51b8152602060048201818152845160248401528451859391928392604401919085019080838360008315610ef2578181015183820152602001610eda56fe45524332303a207472616e7366657220746f20746865207a65726f206164647265737345524332303a206275726e20616d6f756e7420657863656564732062616c616e636545524332303a20617070726f766520746f20746865207a65726f206164647265737345524332303a207472616e7366657220616d6f756e7420657863656564732062616c616e6365416464726573733a20696e73756666696369656e742062616c616e636520666f722063616c6c536166654d6174683a206d756c7469706c69636174696f6e206f766572666c6f7745524332303a207472616e7366657220616d6f756e74206578636565647320616c6c6f77616e636545524332303a206275726e2066726f6d20746865207a65726f206164647265737345524332303a207472616e736665722066726f6d20746865207a65726f206164647265737345524332303a20617070726f76652066726f6d20746865207a65726f20616464726573735361666545524332303a204552433230206f7065726174696f6e20646964206e6f74207375636365656445524332303a2064656372656173656420616c6c6f77616e63652062656c6f77207a65726fa2646970667358221220407fd8d731b44b4b984704e0d561abbf12c5cc8a45ae3b178ae0caed08f8c93a64736f6c634300060c0033",
  "linkReferences": {},
  "deployedLinkReferences": {}
}