{
  "_format": "hh-sol-artifact-1",
  "contractName": "StrategyScream",
  "sourceName": "contracts/Strategies/LendingStrategies/StrategyScream.sol",
  "abi": [
    {
      "inputs": [
        {
          "internalType": "address",
          "name": "_vault",
          "type": "address"
        },
        {
          "internalType": "uint256",
          "name": "_borrowDepth",
          "type": "uint256"
        },
        {
          "internalType": "uint256",
          "name": "_borrowRate",
          "type": "uint256"
        },
        {
          "internalType": "uint256",
          "name": "_borrowRateMax",
          "type": "uint256"
        },
        {
          "internalType": "uint256",
          "name": "_minLeverage",
          "type": "uint256"
        },
        {
          "internalType": "address[]",
          "name": "_outputToNativeRoute",
          "type": "address[]"
        },
        {
          "internalType": "address[]",
          "name": "_outputToWantRoute",
          "type": "address[]"
        },
        {
          "internalType": "address[]",
          "name": "_markets",
          "type": "address[]"
        },
        {
          "internalType": "address",
          "name": "_unirouter",
          "type": "address"
        },
        {
          "internalType": "address",
          "name": "_keeper",
          "type": "address"
        },
        {
          "internalType": "address",
          "name": "_strategist",
          "type": "address"
        },
        {
          "internalType": "address",
          "name": "_serviceFeeRecipient",
          "type": "address"
        }
      ],
      "stateMutability": "nonpayable",
      "type": "constructor"
    },
    {
      "anonymous": false,
      "inputs": [
        {
          "indexed": false,
          "internalType": "uint256",
          "name": "tvl",
          "type": "uint256"
        }
      ],
      "name": "Deposit",
      "type": "event"
    },
    {
      "anonymous": false,
      "inputs": [
        {
          "indexed": false,
          "internalType": "address",
          "name": "newKeeper",
          "type": "address"
        }
      ],
      "name": "NewKeeper",
      "type": "event"
    },
    {
      "anonymous": false,
      "inputs": [
        {
          "indexed": true,
          "internalType": "address",
          "name": "previousOwner",
          "type": "address"
        },
        {
          "indexed": true,
          "internalType": "address",
          "name": "newOwner",
          "type": "address"
        }
      ],
      "name": "OwnershipTransferred",
      "type": "event"
    },
    {
      "anonymous": false,
      "inputs": [
        {
          "indexed": false,
          "internalType": "address",
          "name": "account",
          "type": "address"
        }
      ],
      "name": "Paused",
      "type": "event"
    },
    {
      "anonymous": false,
      "inputs": [
        {
          "indexed": false,
          "internalType": "uint256",
          "name": "callFee",
          "type": "uint256"
        }
      ],
      "name": "SetCallFee",
      "type": "event"
    },
    {
      "anonymous": false,
      "inputs": [
        {
          "indexed": false,
          "internalType": "uint256",
          "name": "withdrawalFee",
          "type": "uint256"
        }
      ],
      "name": "SetWithdrawalFee",
      "type": "event"
    },
    {
      "anonymous": false,
      "inputs": [
        {
          "indexed": false,
          "internalType": "address",
          "name": "account",
          "type": "address"
        }
      ],
      "name": "Unpaused",
      "type": "event"
    },
    {
      "anonymous": false,
      "inputs": [
        {
          "indexed": false,
          "internalType": "uint256",
          "name": "tvl",
          "type": "uint256"
        }
      ],
      "name": "Withdraw",
      "type": "event"
    },
    {
      "inputs": [],
      "name": "BORROW_DEPTH_MAX",
      "outputs": [
        {
          "internalType": "uint256",
          "name": "",
          "type": "uint256"
        }
      ],
      "stateMutability": "view",
      "type": "function"
    },
    {
      "inputs": [],
      "name": "MAX_CALL_FEE",
      "outputs": [
        {
          "internalType": "uint256",
          "name": "",
          "type": "uint256"
        }
      ],
      "stateMutability": "view",
      "type": "function"
    },
    {
      "inputs": [],
      "name": "MAX_FEE",
      "outputs": [
        {
          "internalType": "uint256",
          "name": "",
          "type": "uint256"
        }
      ],
      "stateMutability": "view",
      "type": "function"
    },
    {
      "inputs": [],
      "name": "STRATEGIST_FEE",
      "outputs": [
        {
          "internalType": "uint256",
          "name": "",
          "type": "uint256"
        }
      ],
      "stateMutability": "view",
      "type": "function"
    },
    {
      "inputs": [],
      "name": "WITHDRAWAL_FEE_CAP",
      "outputs": [
        {
          "internalType": "uint256",
          "name": "",
          "type": "uint256"
        }
      ],
      "stateMutability": "view",
      "type": "function"
    },
    {
      "inputs": [],
      "name": "WITHDRAWAL_FEE_DIVISOR",
      "outputs": [
        {
          "internalType": "uint256",
          "name": "",
          "type": "uint256"
        }
      ],
      "stateMutability": "view",
      "type": "function"
    },
    {
      "inputs": [],
      "name": "availableWant",
      "outputs": [
        {
          "internalType": "uint256",
          "name": "",
          "type": "uint256"
        }
      ],
      "stateMutability": "view",
      "type": "function"
    },
    {
      "inputs": [],
      "name": "balanceOfPool",
      "outputs": [
        {
          "internalType": "uint256",
          "name": "",
          "type": "uint256"
        }
      ],
      "stateMutability": "view",
      "type": "function"
    },
    {
      "inputs": [],
      "name": "balanceOfWant",
      "outputs": [
        {
          "internalType": "uint256",
          "name": "",
          "type": "uint256"
        }
      ],
      "stateMutability": "view",
      "type": "function"
    },
    {
      "inputs": [],
      "name": "beefyFee",
      "outputs": [
        {
          "internalType": "uint256",
          "name": "",
          "type": "uint256"
        }
      ],
      "stateMutability": "view",
      "type": "function"
    },
    {
      "inputs": [],
      "name": "beforeDeposit",
      "outputs": [],
      "stateMutability": "nonpayable",
      "type": "function"
    },
    {
      "inputs": [],
      "name": "borrowDepth",
      "outputs": [
        {
          "internalType": "uint256",
          "name": "",
          "type": "uint256"
        }
      ],
      "stateMutability": "view",
      "type": "function"
    },
    {
      "inputs": [],
      "name": "borrowRate",
      "outputs": [
        {
          "internalType": "uint256",
          "name": "",
          "type": "uint256"
        }
      ],
      "stateMutability": "view",
      "type": "function"
    },
    {
      "inputs": [],
      "name": "borrowRateMax",
      "outputs": [
        {
          "internalType": "uint256",
          "name": "",
          "type": "uint256"
        }
      ],
      "stateMutability": "view",
      "type": "function"
    },
    {
      "inputs": [],
      "name": "callFee",
      "outputs": [
        {
          "internalType": "uint256",
          "name": "",
          "type": "uint256"
        }
      ],
      "stateMutability": "view",
      "type": "function"
    },
    {
      "inputs": [],
      "name": "comptroller",
      "outputs": [
        {
          "internalType": "address",
          "name": "",
          "type": "address"
        }
      ],
      "stateMutability": "view",
      "type": "function"
    },
    {
      "inputs": [],
      "name": "deposit",
      "outputs": [],
      "stateMutability": "nonpayable",
      "type": "function"
    },
    {
      "inputs": [],
      "name": "keeper",
      "outputs": [
        {
          "internalType": "address",
          "name": "",
          "type": "address"
        }
      ],
      "stateMutability": "view",
      "type": "function"
    },
    {
      "inputs": [
        {
          "internalType": "uint256",
          "name": "",
          "type": "uint256"
        }
      ],
      "name": "markets",
      "outputs": [
        {
          "internalType": "address",
          "name": "",
          "type": "address"
        }
      ],
      "stateMutability": "view",
      "type": "function"
    },
    {
      "inputs": [],
      "name": "minLeverage",
      "outputs": [
        {
          "internalType": "uint256",
          "name": "",
          "type": "uint256"
        }
      ],
      "stateMutability": "view",
      "type": "function"
    },
    {
      "inputs": [],
      "name": "native",
      "outputs": [
        {
          "internalType": "address",
          "name": "",
          "type": "address"
        }
      ],
      "stateMutability": "view",
      "type": "function"
    },
    {
      "inputs": [],
      "name": "output",
      "outputs": [
        {
          "internalType": "address",
          "name": "",
          "type": "address"
        }
      ],
      "stateMutability": "view",
      "type": "function"
    },
    {
      "inputs": [],
      "name": "outputToNative",
      "outputs": [
        {
          "internalType": "address[]",
          "name": "",
          "type": "address[]"
        }
      ],
      "stateMutability": "view",
      "type": "function"
    },
    {
      "inputs": [
        {
          "internalType": "uint256",
          "name": "",
          "type": "uint256"
        }
      ],
      "name": "outputToNativeRoute",
      "outputs": [
        {
          "internalType": "address",
          "name": "",
          "type": "address"
        }
      ],
      "stateMutability": "view",
      "type": "function"
    },
    {
      "inputs": [],
      "name": "outputToWant",
      "outputs": [
        {
          "internalType": "address[]",
          "name": "",
          "type": "address[]"
        }
      ],
      "stateMutability": "view",
      "type": "function"
    },
    {
      "inputs": [
        {
          "internalType": "uint256",
          "name": "",
          "type": "uint256"
        }
      ],
      "name": "outputToWantRoute",
      "outputs": [
        {
          "internalType": "address",
          "name": "",
          "type": "address"
        }
      ],
      "stateMutability": "view",
      "type": "function"
    },
    {
      "inputs": [],
      "name": "owner",
      "outputs": [
        {
          "internalType": "address",
          "name": "",
          "type": "address"
        }
      ],
      "stateMutability": "view",
      "type": "function"
    },
    {
      "inputs": [],
      "name": "panic",
      "outputs": [],
      "stateMutability": "nonpayable",
      "type": "function"
    },
    {
      "inputs": [],
      "name": "pause",
      "outputs": [],
      "stateMutability": "nonpayable",
      "type": "function"
    },
    {
      "inputs": [],
      "name": "paused",
      "outputs": [
        {
          "internalType": "bool",
          "name": "",
          "type": "bool"
        }
      ],
      "stateMutability": "view",
      "type": "function"
    },
    {
      "inputs": [],
      "name": "renounceOwnership",
      "outputs": [],
      "stateMutability": "nonpayable",
      "type": "function"
    },
    {
      "inputs": [],
      "name": "reserves",
      "outputs": [
        {
          "internalType": "uint256",
          "name": "",
          "type": "uint256"
        }
      ],
      "stateMutability": "view",
      "type": "function"
    },
    {
      "inputs": [],
      "name": "screamToken",
      "outputs": [
        {
          "internalType": "address",
          "name": "",
          "type": "address"
        }
      ],
      "stateMutability": "view",
      "type": "function"
    },
    {
      "inputs": [],
      "name": "serviceFeeRecipient",
      "outputs": [
        {
          "internalType": "address",
          "name": "",
          "type": "address"
        }
      ],
      "stateMutability": "view",
      "type": "function"
    },
    {
      "inputs": [
        {
          "internalType": "uint256",
          "name": "_fee",
          "type": "uint256"
        }
      ],
      "name": "setCallFee",
      "outputs": [],
      "stateMutability": "nonpayable",
      "type": "function"
    },
    {
      "inputs": [
        {
          "internalType": "address",
          "name": "_keeper",
          "type": "address"
        }
      ],
      "name": "setKeeper",
      "outputs": [],
      "stateMutability": "nonpayable",
      "type": "function"
    },
    {
      "inputs": [
        {
          "internalType": "address",
          "name": "_serviceFeeRecipient",
          "type": "address"
        }
      ],
      "name": "setServiceFeeRecipient",
      "outputs": [],
      "stateMutability": "nonpayable",
      "type": "function"
    },
    {
      "inputs": [
        {
          "internalType": "address",
          "name": "_strategist",
          "type": "address"
        }
      ],
      "name": "setStrategist",
      "outputs": [],
      "stateMutability": "nonpayable",
      "type": "function"
    },
    {
      "inputs": [
        {
          "internalType": "address",
          "name": "_unirouter",
          "type": "address"
        }
      ],
      "name": "setUnirouter",
      "outputs": [],
      "stateMutability": "nonpayable",
      "type": "function"
    },
    {
      "inputs": [
        {
          "internalType": "address",
          "name": "_vault",
          "type": "address"
        }
      ],
      "name": "setVault",
      "outputs": [],
      "stateMutability": "nonpayable",
      "type": "function"
    },
    {
      "inputs": [
        {
          "internalType": "uint256",
          "name": "_fee",
          "type": "uint256"
        }
      ],
      "name": "setWithdrawalFee",
      "outputs": [],
      "stateMutability": "nonpayable",
      "type": "function"
    },
    {
      "inputs": [],
      "name": "strategist",
      "outputs": [
        {
          "internalType": "address",
          "name": "",
          "type": "address"
        }
      ],
      "stateMutability": "view",
      "type": "function"
    },
    {
      "inputs": [],
      "name": "totalBalance",
      "outputs": [
        {
          "internalType": "uint256",
          "name": "",
          "type": "uint256"
        }
      ],
      "stateMutability": "view",
      "type": "function"
    },
    {
      "inputs": [
        {
          "internalType": "address",
          "name": "newOwner",
          "type": "address"
        }
      ],
      "name": "transferOwnership",
      "outputs": [],
      "stateMutability": "nonpayable",
      "type": "function"
    },
    {
      "inputs": [],
      "name": "unirouter",
      "outputs": [
        {
          "internalType": "address",
          "name": "",
          "type": "address"
        }
      ],
      "stateMutability": "view",
      "type": "function"
    },
    {
      "inputs": [],
      "name": "unpause",
      "outputs": [],
      "stateMutability": "nonpayable",
      "type": "function"
    },
    {
      "inputs": [],
      "name": "updateBalance",
      "outputs": [],
      "stateMutability": "nonpayable",
      "type": "function"
    },
    {
      "inputs": [],
      "name": "vault",
      "outputs": [
        {
          "internalType": "address",
          "name": "",
          "type": "address"
        }
      ],
      "stateMutability": "view",
      "type": "function"
    },
    {
      "inputs": [],
      "name": "want",
      "outputs": [
        {
          "internalType": "address",
          "name": "",
          "type": "address"
        }
      ],
      "stateMutability": "view",
      "type": "function"
    },
    {
      "inputs": [
        {
          "internalType": "uint256",
          "name": "_amount",
          "type": "uint256"
        }
      ],
      "name": "withdraw",
      "outputs": [],
      "stateMutability": "nonpayable",
      "type": "function"
    },
    {
      "inputs": [],
      "name": "withdrawalFee",
      "outputs": [
        {
          "internalType": "uint256",
          "name": "",
          "type": "uint256"
        }
      ],
      "stateMutability": "view",
      "type": "function"
    }
  ],
  "bytecode": "0x6080604052600a600655606f6007556103096008553480156200002157600080fd5b50604051620030a1380380620030a183398181016040526101808110156200004857600080fd5b815160208301516040808501516060860151608087015160a0880180519451969895979396929591949293820192846401000000008211156200008a57600080fd5b908301906020820185811115620000a057600080fd5b8251866020820283011164010000000082111715620000be57600080fd5b82525081516020918201928201910280838360005b83811015620000ed578181015183820152602001620000d3565b50505050905001604052602001805160405193929190846401000000008211156200011757600080fd5b9083019060208201858111156200012d57600080fd5b82518660208202830111640100000000821117156200014b57600080fd5b82525081516020918201928201910280838360005b838110156200017a57818101518382015260200162000160565b5050505090500160405260200180516040519392919084640100000000821115620001a457600080fd5b908301906020820185811115620001ba57600080fd5b8251866020820283011164010000000082111715620001d857600080fd5b82525081516020918201928201910280838360005b8381101562000207578181015183820152602001620001ed565b505050509190910160409081526020830151908301516060840151608090940151919550935090508282858e8460006200024062000659565b600080546001600160a01b0319166001600160a01b0383169081178255604051929350917f8be0079c531659141344cd1fd0a4f28419497f9722a3daafe3b4186f6b6457e0908290a3506000805460ff60a01b191690556001600160a01b03851615801590620002b857506001600160a01b03841615155b8015620002cd57506001600160a01b03831615155b8015620002e257506001600160a01b03821615155b8015620002f757506001600160a01b03811615155b62000336576040805162461bcd60e51b815260206004820152600a6024820152692130204164647265737360b01b604482015290519081900360640190fd5b600180546001600160a01b03199081166001600160a01b0397881617909155600280548216958716959095179094556003805485169386169390931790925560048054841691851691909117905560058054909216921691909117905560108b905560118a9055601289905560138890558451620003bc90600f90602088019062000acc565b50600f600081548110620003cc57fe5b6000918252602080832090910154600c80546001600160a01b0319166001600160a01b03928316179081905560408051636f307dc360e01b815290519190921693636f307dc393600480850194919392918390030190829087803b1580156200043457600080fd5b505af115801562000449573d6000803e3d6000fd5b505050506040513d60208110156200046057600080fd5b5051600b80546001600160a01b0319166001600160a01b03909216919091179055865187906000906200048f57fe5b6020026020010151600a60006101000a8154816001600160a01b0302191690836001600160a01b0316021790555086600188510381518110620004ce57fe5b602090810291909101810151600980546001600160a01b0319166001600160a01b0390921691909117905587516200050d91600d91908a019062000acc565b50600b5486516001600160a01b0390911690879060001981019081106200053057fe5b60200260200101516001600160a01b0316146200057f5760405162461bcd60e51b815260040180806020018281038252602181526020018062002ffa6021913960400191505060405180910390fd5b85516200059490600e90602089019062000acc565b506200059f6200065d565b604051631853304760e31b815260206004820181815287516024840152875173260e596dabe3afc463e75b6cc05d8c46acacfb099363c2998238938a9392839260440191808601910280838360005b8381101562000608578181015183820152602001620005ee565b5050505090500192505050600060405180830381600087803b1580156200062e57600080fd5b505af115801562000643573d6000803e3d6000fd5b5050505050505050505050505050505062000b57565b3390565b600c54600b546200068a916001600160a01b039182169116600019620006b9602090811b620015bd17901c565b600354600a54620006b7916001600160a01b039182169116600019620006b9602090811b620015bd17901c565b565b80158062000743575060408051636eb1769f60e11b81523060048201526001600160a01b03848116602483015291519185169163dd62ed3e91604480820192602092909190829003018186803b1580156200071357600080fd5b505afa15801562000728573d6000803e3d6000fd5b505050506040513d60208110156200073f57600080fd5b5051155b620007805760405162461bcd60e51b81526004018080602001828103825260368152602001806200306b6036913960400191505060405180910390fd5b604080516001600160a01b038416602482015260448082018490528251808303909101815260649091019091526020810180516001600160e01b0390811663095ea7b360e01b17909152620007d8918591620007dd16565b505050565b606062000839826040518060400160405280602081526020017f5361666545524332303a206c6f772d6c6576656c2063616c6c206661696c6564815250856001600160a01b03166200089960201b620016d5179092919060201c565b805190915015620007d8578080602001905160208110156200085a57600080fd5b5051620007d85760405162461bcd60e51b815260040180806020018281038252602a81526020018062003041602a913960400191505060405180910390fd5b6060620008aa8484600085620008b4565b90505b9392505050565b606082471015620008f75760405162461bcd60e51b81526004018080602001828103825260268152602001806200301b6026913960400191505060405180910390fd5b620009028562000a1c565b62000954576040805162461bcd60e51b815260206004820152601d60248201527f416464726573733a2063616c6c20746f206e6f6e2d636f6e7472616374000000604482015290519081900360640190fd5b60006060866001600160a01b031685876040518082805190602001908083835b60208310620009955780518252601f19909201916020918201910162000974565b6001836020036101000a03801982511681845116808217855250505050505090500191505060006040518083038185875af1925050503d8060008114620009f9576040519150601f19603f3d011682016040523d82523d6000602084013e620009fe565b606091505b50909250905062000a1182828662000a22565b979650505050505050565b3b151590565b6060831562000a33575081620008ad565b82511562000a445782518084602001fd5b8160405162461bcd60e51b81526004018080602001828103825283818151815260200191508051906020019080838360005b8381101562000a9057818101518382015260200162000a76565b50505050905090810190601f16801562000abe5780820380516001836020036101000a031916815260200191505b509250505060405180910390fd5b82805482825590600052602060002090810192821562000b24579160200282015b8281111562000b2457825182546001600160a01b0319166001600160a01b0390911617825560209092019160019091019062000aed565b5062000b3292915062000b36565b5090565b5b8082111562000b325780546001600160a01b031916815560010162000b37565b6124938062000b676000396000f3fe608060405234801561001057600080fd5b50600436106102f15760003560e01c80638456cb591161019d578063c1a3d44c116100e9578063d92f3d73116100a2578063dfbdc4371161007c578063dfbdc43714610616578063f20eaeb81461061e578063f2fde38b14610626578063fbfa77cf1461064c576102f1565b8063d92f3d73146105cb578063d98e6911146105f1578063dd93d6b3146105f9576102f1565b8063c1a3d44c1461057d578063c7b9d53014610585578063c914b437146105ab578063cc7cb29b146105b3578063d0e30db0146105bb578063d3102589146105c3576102f1565b8063ac1e502511610156578063b1283e7711610130578063b1283e7714610533578063b4896ecc14610550578063bc063e1a14610558578063be12a97814610560576102f1565b8063ac1e502514610506578063aced166114610523578063ad7a672f1461052b576102f1565b80638456cb59146104d65780638bc7e8c4146104de5780638da5cb5b146104e657806390321e1a146104ee57806397684317146104f6578063a9559dd7146104fe576102f1565b806338efebd31161025c5780635c975abb11610215578063715018a6116101ef578063715018a614610498578063748747e6146104a057806375172a8b146104c65780637d38ca65146104ce576102f1565b80635c975abb1461044e5780635fe3b5671461046a5780636817031b14610472576102f1565b806338efebd31461041e5780633f4ba83a146104265780634700d3051461042e5780634fa4a86514610436578063573fef0a1461043e5780635c2d804014610446576102f1565b806320f6f76f116102ae57806320f6f76f146103a4578063257ae0de146103ac57806326465826146103b4578063274027e1146103d35780632ad5a53f146103f95780632e1a7d4d14610401576102f1565b80630e5ad9f1146102f6578063115880861461031057806311b0b42d1461031857806313e120b11461033c5780631f1fcd51146103945780631fe4a6861461039c575b600080fd5b6102fe610654565b60408051918252519081900360200190f35b6102fe61065a565b610320610660565b604080516001600160a01b039092168252519081900360200190f35b61034461066f565b60408051602080825283518183015283519192839290830191858101910280838360005b83811015610380578181015183820152602001610368565b505050509050019250505060405180910390f35b6103206106d1565b6103206106e0565b6102fe6106ef565b6103206106f5565b6103d1600480360360208110156103ca57600080fd5b5035610704565b005b6103d1600480360360208110156103e957600080fd5b50356001600160a01b03166107f4565b6102fe6108c0565b6103d16004803603602081101561041757600080fd5b50356108c5565b6102fe610a91565b6103d1610aac565b6103d1610b33565b610320610bb0565b6103d1610b31565b610320610bbf565b610456610bce565b604080519115158252519081900360200190f35b610320610bde565b6103d16004803603602081101561048857600080fd5b50356001600160a01b0316610bf6565b6103d1610cc2565b6103d1600480360360208110156104b657600080fd5b50356001600160a01b0316610d6e565b6102fe610e77565b6102fe610e7d565b6103d1610e82565b6102fe610eff565b610320610f05565b6102fe610f14565b6102fe610f1a565b6103d1610f20565b6103d16004803603602081101561051c57600080fd5b5035611029565b610320611110565b6102fe61111f565b6103206004803603602081101561054957600080fd5b5035611135565b6102fe61115c565b6102fe611161565b6103206004803603602081101561057657600080fd5b5035611167565b6102fe611174565b6103d16004803603602081101561059b57600080fd5b50356001600160a01b03166111f0565b6102fe6112a7565b6103446112ad565b6103d161130d565b6102fe6113b3565b6103d1600480360360208110156105e157600080fd5b50356001600160a01b03166113b9565b6102fe611485565b6103206004803603602081101561060f57600080fd5b503561148b565b6102fe611498565b61032061149d565b6103d16004803603602081101561063c57600080fd5b50356001600160a01b03166114ac565b6103206115ae565b60125481565b60155481565b6009546001600160a01b031681565b6060600d8054806020026020016040519081016040528092919081815260200182805480156106c757602002820191906000526020600020905b81546001600160a01b031681526001909101906020018083116106a9575b5050505050905090565b600b546001600160a01b031681565b6002546001600160a01b031681565b60135481565b6003546001600160a01b031681565b61070c610f05565b6001600160a01b0316336001600160a01b0316148061073557506001546001600160a01b031633145b610771576040805162461bcd60e51b815260206004820152600860248201526710b6b0b730b3b2b960c11b604482015290519081900360640190fd5b606f8111156107b0576040805162461bcd60e51b815260206004808301919091526024820152630216361760e41b604482015290519081900360640190fd5b60078190556103788190036008556040805182815290517f589643087c0743c4f44030e1994d37c73dcd0630bfc83573775b0d8ed22cdb749181900360200190a150565b6107fc6116ee565b6001600160a01b031661080d610f05565b6001600160a01b031614610856576040805162461bcd60e51b815260206004820181905260248201526000805160206123de833981519152604482015290519081900360640190fd5b6001600160a01b03811661089e576040805162461bcd60e51b815260206004820152600a6024820152692130204164647265737360b01b604482015290519081900360640190fd5b600580546001600160a01b0319166001600160a01b0392909216919091179055565b606f81565b6004546001600160a01b0316331461090d576040805162461bcd60e51b81526020600482015260066024820152650855985d5b1d60d21b604482015290519081900360640190fd5b6000610917610a91565b9050808211156109a3576109296116f2565b600b54604080516370a0823160e01b815230600482015290516001600160a01b03909216916370a0823191602480820192602092909190829003018186803b15801561097457600080fd5b505afa158015610988573d6000803e3d6000fd5b505050506040513d602081101561099e57600080fd5b505190505b818111156109ae5750805b6109b6610f05565b6001600160a01b0316326001600160a01b0316141580156109e257506001546001600160a01b03163214155b15610a1a576000610a0a612710610a0460065485611bf890919063ffffffff16565b90611c5a565b9050610a168282611cc1565b9150505b600454600b54610a37916001600160a01b03918216911683611d1e565b7f5b6b431d4476a211bb7d41c20d1aab9ae2321deee0d20be3d9fc9b1093fa6e3d610a6061111f565b60408051918252519081900360200190a1610a79610bce565b610a8d57610a8d610a88610a91565b611d70565b5050565b6000610aa7601454610aa1611174565b90611cc1565b905090565b610ab4610f05565b6001600160a01b0316336001600160a01b03161480610add57506001546001600160a01b031633145b610b19576040805162461bcd60e51b815260206004820152600860248201526710b6b0b730b3b2b960c11b604482015290519081900360640190fd5b610b21611eb9565b610b29611f5c565b610b3161130d565b565b610b3b610f05565b6001600160a01b0316336001600160a01b03161480610b6457506001546001600160a01b031633145b610ba0576040805162461bcd60e51b815260206004820152600860248201526710b6b0b730b3b2b960c11b604482015290519081900360640190fd5b610ba86116f2565b610b31610e82565b600c546001600160a01b031681565b6005546001600160a01b031681565b600054600160a01b900460ff1690565b73260e596dabe3afc463e75b6cc05d8c46acacfb0981565b610bfe6116ee565b6001600160a01b0316610c0f610f05565b6001600160a01b031614610c58576040805162461bcd60e51b815260206004820181905260248201526000805160206123de833981519152604482015290519081900360640190fd5b6001600160a01b038116610ca0576040805162461bcd60e51b815260206004820152600a6024820152692130204164647265737360b01b604482015290519081900360640190fd5b600480546001600160a01b0319166001600160a01b0392909216919091179055565b610cca6116ee565b6001600160a01b0316610cdb610f05565b6001600160a01b031614610d24576040805162461bcd60e51b815260206004820181905260248201526000805160206123de833981519152604482015290519081900360640190fd5b600080546040516001600160a01b03909116907f8be0079c531659141344cd1fd0a4f28419497f9722a3daafe3b4186f6b6457e0908390a3600080546001600160a01b0319169055565b610d76610f05565b6001600160a01b0316336001600160a01b03161480610d9f57506001546001600160a01b031633145b610ddb576040805162461bcd60e51b815260206004820152600860248201526710b6b0b730b3b2b960c11b604482015290519081900360640190fd5b6001600160a01b038116610e23576040805162461bcd60e51b815260206004820152600a6024820152692130204164647265737360b01b604482015290519081900360640190fd5b600180546001600160a01b0383166001600160a01b0319909116811790915560408051918252517f8b67cf08b3b4a582cdf414f29895fde3e3f03a3bf26373a22a8b9bd89e7574889181900360200190a150565b60145481565b607081565b610e8a610f05565b6001600160a01b0316336001600160a01b03161480610eb357506001546001600160a01b031633145b610eef576040805162461bcd60e51b815260206004820152600860248201526710b6b0b730b3b2b960c11b604482015290519081900360640190fd5b610ef7611f9a565b610b31612023565b60065481565b6000546001600160a01b031690565b60075481565b60105481565b600c5460408051633af9e66960e01b815230600482015290516000926001600160a01b031691633af9e66991602480830192602092919082900301818787803b158015610f6c57600080fd5b505af1158015610f80573d6000803e3d6000fd5b505050506040513d6020811015610f9657600080fd5b5051600c54604080516305eff7ef60e21b815230600482015290519293506000926001600160a01b03909216916317bfdfbc9160248082019260209290919082900301818787803b158015610fea57600080fd5b505af1158015610ffe573d6000803e3d6000fd5b505050506040513d602081101561101457600080fd5b505190506110228282611cc1565b6015555050565b611031610f05565b6001600160a01b0316336001600160a01b0316148061105a57506001546001600160a01b031633145b611096576040805162461bcd60e51b815260206004820152600860248201526710b6b0b730b3b2b960c11b604482015290519081900360640190fd5b60328111156110d5576040805162461bcd60e51b815260206004808301919091526024820152630216361760e41b604482015290519081900360640190fd5b60068190556040805182815290517f3aa4413905e8f015896ec5880bdde24088ccb19b578f9fcf6800354d5320d4af9181900360200190a150565b6001546001600160a01b031681565b6000610aa760155461112f611174565b9061205f565b600f818154811061114257fe5b6000918252602090912001546001600160a01b0316905081565b600a81565b6103e881565b600d818154811061114257fe5b600b54604080516370a0823160e01b815230600482015290516000926001600160a01b0316916370a08231916024808301926020929190829003018186803b1580156111bf57600080fd5b505afa1580156111d3573d6000803e3d6000fd5b505050506040513d60208110156111e957600080fd5b5051905090565b6002546001600160a01b0316331461123d576040805162461bcd60e51b815260206004820152600b60248201526a085cdd1c985d1959da5cdd60aa1b604482015290519081900360640190fd5b6001600160a01b038116611285576040805162461bcd60e51b815260206004820152600a6024820152692130204164647265737360b01b604482015290519081900360640190fd5b600280546001600160a01b0319166001600160a01b0392909216919091179055565b60115481565b6060600e8054806020026020016040519081016040528092919081815260200182805480156106c7576020028201919060005260206000209081546001600160a01b031681526001909101906020018083116106a9575050505050905090565b611315610bce565b1561135a576040805162461bcd60e51b815260206004820152601060248201526f14185d5cd8589b194e881c185d5cd95960821b604482015290519081900360640190fd5b6000611364610a91565b905080156113b05761137581611d70565b7f4d6ce1e535dbade1c23defba91e23b8f791ce5edc0cc320257a2b364e4e3842661139e61111f565b60408051918252519081900360200190a15b50565b60085481565b6113c16116ee565b6001600160a01b03166113d2610f05565b6001600160a01b03161461141b576040805162461bcd60e51b815260206004820181905260248201526000805160206123de833981519152604482015290519081900360640190fd5b6001600160a01b038116611463576040805162461bcd60e51b815260206004820152600a6024820152692130204164647265737360b01b604482015290519081900360640190fd5b600380546001600160a01b0319166001600160a01b0392909216919091179055565b61271081565b600e818154811061114257fe5b603281565b600a546001600160a01b031681565b6114b46116ee565b6001600160a01b03166114c5610f05565b6001600160a01b03161461150e576040805162461bcd60e51b815260206004820181905260248201526000805160206123de833981519152604482015290519081900360640190fd5b6001600160a01b0381166115535760405162461bcd60e51b81526004018080602001828103825260268152602001806123716026913960400191505060405180910390fd5b600080546040516001600160a01b03808516939216917f8be0079c531659141344cd1fd0a4f28419497f9722a3daafe3b4186f6b6457e091a3600080546001600160a01b0319166001600160a01b0392909216919091179055565b6004546001600160a01b031681565b801580611643575060408051636eb1769f60e11b81523060048201526001600160a01b03848116602483015291519185169163dd62ed3e91604480820192602092909190829003018186803b15801561161557600080fd5b505afa158015611629573d6000803e3d6000fd5b505050506040513d602081101561163f57600080fd5b5051155b61167e5760405162461bcd60e51b81526004018080602001828103825260368152602001806124286036913960400191505060405180910390fd5b604080516001600160a01b038416602482015260448082018490528251808303909101815260649091019091526020810180516001600160e01b031663095ea7b360e01b1790526116d09084906120b9565b505050565b60606116e4848460008561216a565b90505b9392505050565b3390565b600c54604080516305eff7ef60e21b815230600482015290516000926001600160a01b0316916317bfdfbc91602480830192602092919082900301818787803b15801561173e57600080fd5b505af1158015611752573d6000803e3d6000fd5b505050506040513d602081101561176857600080fd5b5051600b54604080516370a0823160e01b815230600482015290519293506000926001600160a01b03909216916370a0823191602480820192602092909190829003018186803b1580156117bb57600080fd5b505afa1580156117cf573d6000803e3d6000fd5b505050506040513d60208110156117e557600080fd5b505190505b80821115611a7c57600c546040805163073a938160e11b81526004810184905290516001600160a01b0390921691630e752702916024808201926020929091908290030181600087803b15801561184057600080fd5b505af1158015611854573d6000803e3d6000fd5b505050506040513d602081101561186a57600080fd5b5050600c54604080516305eff7ef60e21b815230600482015290516001600160a01b03909216916317bfdfbc916024808201926020929091908290030181600087803b1580156118b957600080fd5b505af11580156118cd573d6000803e3d6000fd5b505050506040513d60208110156118e357600080fd5b50516011549092506000906118fd90610a04856064611bf8565b600c5460408051633af9e66960e01b815230600482015290519293506000926001600160a01b0390921691633af9e6699160248082019260209290919082900301818787803b15801561194f57600080fd5b505af1158015611963573d6000803e3d6000fd5b505050506040513d602081101561197957600080fd5b5051600c549091506001600160a01b031663852a12e36119998385611cc1565b6040518263ffffffff1660e01b815260040180828152602001915050602060405180830381600087803b1580156119cf57600080fd5b505af11580156119e3573d6000803e3d6000fd5b505050506040513d60208110156119f957600080fd5b5050600b54604080516370a0823160e01b815230600482015290516001600160a01b03909216916370a0823191602480820192602092909190829003018186803b158015611a4657600080fd5b505afa158015611a5a573d6000803e3d6000fd5b505050506040513d6020811015611a7057600080fd5b505192506117ea915050565b600c546040805163073a938160e11b8152600019600482015290516001600160a01b0390921691630e752702916024808201926020929091908290030181600087803b158015611acb57600080fd5b505af1158015611adf573d6000803e3d6000fd5b505050506040513d6020811015611af557600080fd5b5050600c54604080516370a0823160e01b815230600482015290516000926001600160a01b0316916370a08231916024808301926020929190829003018186803b158015611b4257600080fd5b505afa158015611b56573d6000803e3d6000fd5b505050506040513d6020811015611b6c57600080fd5b5051600c546040805163db006a7560e01b81526004810184905290519293506001600160a01b039091169163db006a75916024808201926020929091908290030181600087803b158015611bbf57600080fd5b505af1158015611bd3573d6000803e3d6000fd5b505050506040513d6020811015611be957600080fd5b505060006014556116d0610f20565b600082611c0757506000611c54565b82820282848281611c1457fe5b0414611c515760405162461bcd60e51b81526004018080602001828103825260218152602001806123bd6021913960400191505060405180910390fd5b90505b92915050565b6000808211611cb0576040805162461bcd60e51b815260206004820152601a60248201527f536166654d6174683a206469766973696f6e206279207a65726f000000000000604482015290519081900360640190fd5b818381611cb957fe5b049392505050565b600082821115611d18576040805162461bcd60e51b815260206004820152601e60248201527f536166654d6174683a207375627472616374696f6e206f766572666c6f770000604482015290519081900360640190fd5b50900390565b604080516001600160a01b038416602482015260448082018490528251808303909101815260649091019091526020810180516001600160e01b031663a9059cbb60e01b1790526116d09084906120b9565b601354811015611d7f576113b0565b60005b601054811015611ea057600c546040805163140e25ad60e31b81526004810185905290516001600160a01b039092169163a0712d68916024808201926020929091908290030181600087803b158015611dda57600080fd5b505af1158015611dee573d6000803e3d6000fd5b505050506040513d6020811015611e0457600080fd5b5050601154611e1b90606490610a04908590611bf8565b600c546040805163317afabb60e21b81526004810184905290519294506001600160a01b039091169163c5ebeaec916024808201926020929091908290030181600087803b158015611e6c57600080fd5b505af1158015611e80573d6000803e3d6000fd5b505050506040513d6020811015611e9657600080fd5b5050600101611d82565b50601454611eae908261205f565b6014556113b0610f20565b611ec1610bce565b611f09576040805162461bcd60e51b815260206004820152601460248201527314185d5cd8589b194e881b9bdd081c185d5cd95960621b604482015290519081900360640190fd5b6000805460ff60a01b191690557f5db9ee0a495bf2e6ff9c91a7834c1ba4fdd244a5e8aa4e537bd38aeae4b073aa611f3f6116ee565b604080516001600160a01b039092168252519081900360200190a1565b600c54600b54611f7b916001600160a01b0391821691166000196115bd565b600354600a54610b31916001600160a01b0391821691166000196115bd565b611fa2610bce565b15611fe7576040805162461bcd60e51b815260206004820152601060248201526f14185d5cd8589b194e881c185d5cd95960821b604482015290519081900360640190fd5b6000805460ff60a01b1916600160a01b1790557f62e78cea01bee320cd4e420270b5ea74000d11b0c9f74754ebdbfc544b05a258611f3f6116ee565b600c54600b54612041916001600160a01b03918216911660006115bd565b600354600a54610b31916001600160a01b03918216911660006115bd565b600082820183811015611c51576040805162461bcd60e51b815260206004820152601b60248201527f536166654d6174683a206164646974696f6e206f766572666c6f770000000000604482015290519081900360640190fd5b606061210e826040518060400160405280602081526020017f5361666545524332303a206c6f772d6c6576656c2063616c6c206661696c6564815250856001600160a01b03166116d59092919063ffffffff16565b8051909150156116d05780806020019051602081101561212d57600080fd5b50516116d05760405162461bcd60e51b815260040180806020018281038252602a8152602001806123fe602a913960400191505060405180910390fd5b6060824710156121ab5760405162461bcd60e51b81526004018080602001828103825260268152602001806123976026913960400191505060405180910390fd5b6121b4856122c6565b612205576040805162461bcd60e51b815260206004820152601d60248201527f416464726573733a2063616c6c20746f206e6f6e2d636f6e7472616374000000604482015290519081900360640190fd5b60006060866001600160a01b031685876040518082805190602001908083835b602083106122445780518252601f199092019160209182019101612225565b6001836020036101000a03801982511681845116808217855250505050505090500191505060006040518083038185875af1925050503d80600081146122a6576040519150601f19603f3d011682016040523d82523d6000602084013e6122ab565b606091505b50915091506122bb8282866122cc565b979650505050505050565b3b151590565b606083156122db5750816116e7565b8251156122eb5782518084602001fd5b8160405162461bcd60e51b81526004018080602001828103825283818151815260200191508051906020019080838360005b8381101561233557818101518382015260200161231d565b50505050905090810190601f1680156123625780820380516001836020036101000a031916815260200191505b509250505060405180910390fdfe4f776e61626c653a206e6577206f776e657220697320746865207a65726f2061646472657373416464726573733a20696e73756666696369656e742062616c616e636520666f722063616c6c536166654d6174683a206d756c7469706c69636174696f6e206f766572666c6f774f776e61626c653a2063616c6c6572206973206e6f7420746865206f776e65725361666545524332303a204552433230206f7065726174696f6e20646964206e6f7420737563636565645361666545524332303a20617070726f76652066726f6d206e6f6e2d7a65726f20746f206e6f6e2d7a65726f20616c6c6f77616e6365a26469706673582212209551f33019b48f1aee817a14335557b9a892fa1e74741c022edda32f8205032764736f6c634300060c00336f7574707574546f4e6174697665526f7574655b6c6173745d20213d2077616e74416464726573733a20696e73756666696369656e742062616c616e636520666f722063616c6c5361666545524332303a204552433230206f7065726174696f6e20646964206e6f7420737563636565645361666545524332303a20617070726f76652066726f6d206e6f6e2d7a65726f20746f206e6f6e2d7a65726f20616c6c6f77616e6365",
  "linkReferences": {},
  "deployedLinkReferences": {}
}