{
  "_format": "hh-sol-artifact-1",
  "contractName": "StrategySpartacus",
  "sourceName": "contracts/Strategies/RebasingDAOStrategies/StrategySpartacus.sol",
  "abi": [
    {
      "inputs": [
        {
          "internalType": "address",
          "name": "_vault",
          "type": "address"
        },
        {
          "internalType": "address",
          "name": "_want",
          "type": "address"
        },
        {
          "internalType": "contract IUniswapV2Pair",
          "name": "_wantRebasePair",
          "type": "address"
        },
        {
          "internalType": "address",
          "name": "_rebaseStaker",
          "type": "address"
        },
        {
          "internalType": "address",
          "name": "_stakeManager",
          "type": "address"
        },
        {
          "internalType": "address",
          "name": "_keeper",
          "type": "address"
        },
        {
          "internalType": "address",
          "name": "_strategist",
          "type": "address"
        },
        {
          "internalType": "address",
          "name": "_unirouter",
          "type": "address"
        },
        {
          "internalType": "address",
          "name": "_serviceFeeRecipient",
          "type": "address"
        },
        {
          "internalType": "uint256",
          "name": "_minDeposit",
          "type": "uint256"
        },
        {
          "internalType": "address[]",
          "name": "_wantToRebaseRoute",
          "type": "address[]"
        },
        {
          "internalType": "address[]",
          "name": "_rebaseToWantRoute",
          "type": "address[]"
        }
      ],
      "stateMutability": "nonpayable",
      "type": "constructor"
    },
    {
      "anonymous": false,
      "inputs": [
        {
          "indexed": false,
          "internalType": "uint256",
          "name": "trl",
          "type": "uint256"
        }
      ],
      "name": "Deposit",
      "type": "event"
    },
    {
      "anonymous": false,
      "inputs": [
        {
          "indexed": false,
          "internalType": "address",
          "name": "newKeeper",
          "type": "address"
        }
      ],
      "name": "NewKeeper",
      "type": "event"
    },
    {
      "anonymous": false,
      "inputs": [
        {
          "indexed": true,
          "internalType": "address",
          "name": "previousOwner",
          "type": "address"
        },
        {
          "indexed": true,
          "internalType": "address",
          "name": "newOwner",
          "type": "address"
        }
      ],
      "name": "OwnershipTransferred",
      "type": "event"
    },
    {
      "anonymous": false,
      "inputs": [
        {
          "indexed": false,
          "internalType": "address",
          "name": "account",
          "type": "address"
        }
      ],
      "name": "Paused",
      "type": "event"
    },
    {
      "anonymous": false,
      "inputs": [
        {
          "indexed": false,
          "internalType": "uint256",
          "name": "rebaseAmount",
          "type": "uint256"
        }
      ],
      "name": "Stake",
      "type": "event"
    },
    {
      "anonymous": false,
      "inputs": [
        {
          "indexed": false,
          "internalType": "address",
          "name": "account",
          "type": "address"
        }
      ],
      "name": "Unpaused",
      "type": "event"
    },
    {
      "anonymous": false,
      "inputs": [
        {
          "indexed": false,
          "internalType": "uint256",
          "name": "rebaseAmount",
          "type": "uint256"
        }
      ],
      "name": "Unstake",
      "type": "event"
    },
    {
      "anonymous": false,
      "inputs": [
        {
          "indexed": false,
          "internalType": "uint256",
          "name": "trl",
          "type": "uint256"
        }
      ],
      "name": "Withdraw",
      "type": "event"
    },
    {
      "inputs": [],
      "name": "availableWant",
      "outputs": [
        {
          "internalType": "uint256",
          "name": "",
          "type": "uint256"
        }
      ],
      "stateMutability": "view",
      "type": "function"
    },
    {
      "inputs": [],
      "name": "balanceOfWant",
      "outputs": [
        {
          "internalType": "uint256",
          "name": "",
          "type": "uint256"
        }
      ],
      "stateMutability": "view",
      "type": "function"
    },
    {
      "inputs": [],
      "name": "beforeDeposit",
      "outputs": [],
      "stateMutability": "nonpayable",
      "type": "function"
    },
    {
      "inputs": [],
      "name": "deposit",
      "outputs": [],
      "stateMutability": "nonpayable",
      "type": "function"
    },
    {
      "inputs": [],
      "name": "keeper",
      "outputs": [
        {
          "internalType": "address",
          "name": "",
          "type": "address"
        }
      ],
      "stateMutability": "view",
      "type": "function"
    },
    {
      "inputs": [],
      "name": "minDeposit",
      "outputs": [
        {
          "internalType": "uint256",
          "name": "",
          "type": "uint256"
        }
      ],
      "stateMutability": "view",
      "type": "function"
    },
    {
      "inputs": [],
      "name": "owner",
      "outputs": [
        {
          "internalType": "address",
          "name": "",
          "type": "address"
        }
      ],
      "stateMutability": "view",
      "type": "function"
    },
    {
      "inputs": [],
      "name": "paused",
      "outputs": [
        {
          "internalType": "bool",
          "name": "",
          "type": "bool"
        }
      ],
      "stateMutability": "view",
      "type": "function"
    },
    {
      "inputs": [
        {
          "internalType": "uint256",
          "name": "_amount",
          "type": "uint256"
        }
      ],
      "name": "rebaseAmountToWant",
      "outputs": [
        {
          "internalType": "uint256",
          "name": "",
          "type": "uint256"
        }
      ],
      "stateMutability": "view",
      "type": "function"
    },
    {
      "inputs": [
        {
          "internalType": "uint256",
          "name": "_amount",
          "type": "uint256"
        }
      ],
      "name": "rebaseAmountToWantWithFee",
      "outputs": [
        {
          "internalType": "uint256",
          "name": "",
          "type": "uint256"
        }
      ],
      "stateMutability": "view",
      "type": "function"
    },
    {
      "inputs": [],
      "name": "rebaseStaker",
      "outputs": [
        {
          "internalType": "address",
          "name": "",
          "type": "address"
        }
      ],
      "stateMutability": "view",
      "type": "function"
    },
    {
      "inputs": [
        {
          "internalType": "uint256",
          "name": "",
          "type": "uint256"
        }
      ],
      "name": "rebaseToWantRoute",
      "outputs": [
        {
          "internalType": "address",
          "name": "",
          "type": "address"
        }
      ],
      "stateMutability": "view",
      "type": "function"
    },
    {
      "inputs": [],
      "name": "rebaseToken",
      "outputs": [
        {
          "internalType": "address",
          "name": "",
          "type": "address"
        }
      ],
      "stateMutability": "view",
      "type": "function"
    },
    {
      "inputs": [],
      "name": "renounceOwnership",
      "outputs": [],
      "stateMutability": "nonpayable",
      "type": "function"
    },
    {
      "inputs": [],
      "name": "serviceFeeRecipient",
      "outputs": [
        {
          "internalType": "address",
          "name": "",
          "type": "address"
        }
      ],
      "stateMutability": "view",
      "type": "function"
    },
    {
      "inputs": [
        {
          "internalType": "address",
          "name": "_keeper",
          "type": "address"
        }
      ],
      "name": "setKeeper",
      "outputs": [],
      "stateMutability": "nonpayable",
      "type": "function"
    },
    {
      "inputs": [
        {
          "internalType": "address",
          "name": "_serviceFeeRecipient",
          "type": "address"
        }
      ],
      "name": "setServiceFeeRecipient",
      "outputs": [],
      "stateMutability": "nonpayable",
      "type": "function"
    },
    {
      "inputs": [
        {
          "internalType": "address",
          "name": "_strategist",
          "type": "address"
        }
      ],
      "name": "setStrategist",
      "outputs": [],
      "stateMutability": "nonpayable",
      "type": "function"
    },
    {
      "inputs": [
        {
          "internalType": "address",
          "name": "_unirouter",
          "type": "address"
        }
      ],
      "name": "setUnirouter",
      "outputs": [],
      "stateMutability": "nonpayable",
      "type": "function"
    },
    {
      "inputs": [
        {
          "internalType": "address",
          "name": "_vault",
          "type": "address"
        }
      ],
      "name": "setVault",
      "outputs": [],
      "stateMutability": "nonpayable",
      "type": "function"
    },
    {
      "inputs": [],
      "name": "stakeManager",
      "outputs": [
        {
          "internalType": "address",
          "name": "",
          "type": "address"
        }
      ],
      "stateMutability": "view",
      "type": "function"
    },
    {
      "inputs": [],
      "name": "stakedRebaseToken",
      "outputs": [
        {
          "internalType": "address",
          "name": "",
          "type": "address"
        }
      ],
      "stateMutability": "view",
      "type": "function"
    },
    {
      "inputs": [],
      "name": "stakedRebasing",
      "outputs": [
        {
          "internalType": "uint256",
          "name": "",
          "type": "uint256"
        }
      ],
      "stateMutability": "view",
      "type": "function"
    },
    {
      "inputs": [],
      "name": "strategist",
      "outputs": [
        {
          "internalType": "address",
          "name": "",
          "type": "address"
        }
      ],
      "stateMutability": "view",
      "type": "function"
    },
    {
      "inputs": [],
      "name": "totalBalance",
      "outputs": [
        {
          "internalType": "uint256",
          "name": "",
          "type": "uint256"
        }
      ],
      "stateMutability": "view",
      "type": "function"
    },
    {
      "inputs": [],
      "name": "totalRebasing",
      "outputs": [
        {
          "internalType": "uint256",
          "name": "",
          "type": "uint256"
        }
      ],
      "stateMutability": "view",
      "type": "function"
    },
    {
      "inputs": [
        {
          "internalType": "address",
          "name": "newOwner",
          "type": "address"
        }
      ],
      "name": "transferOwnership",
      "outputs": [],
      "stateMutability": "nonpayable",
      "type": "function"
    },
    {
      "inputs": [],
      "name": "unirouter",
      "outputs": [
        {
          "internalType": "address",
          "name": "",
          "type": "address"
        }
      ],
      "stateMutability": "view",
      "type": "function"
    },
    {
      "inputs": [],
      "name": "unstakedRebasing",
      "outputs": [
        {
          "internalType": "uint256",
          "name": "",
          "type": "uint256"
        }
      ],
      "stateMutability": "view",
      "type": "function"
    },
    {
      "inputs": [],
      "name": "vault",
      "outputs": [
        {
          "internalType": "address",
          "name": "",
          "type": "address"
        }
      ],
      "stateMutability": "view",
      "type": "function"
    },
    {
      "inputs": [],
      "name": "want",
      "outputs": [
        {
          "internalType": "address",
          "name": "",
          "type": "address"
        }
      ],
      "stateMutability": "view",
      "type": "function"
    },
    {
      "inputs": [
        {
          "internalType": "uint256",
          "name": "_amount",
          "type": "uint256"
        }
      ],
      "name": "wantAmountToRebase",
      "outputs": [
        {
          "internalType": "uint256",
          "name": "",
          "type": "uint256"
        }
      ],
      "stateMutability": "view",
      "type": "function"
    },
    {
      "inputs": [
        {
          "internalType": "uint256",
          "name": "_amount",
          "type": "uint256"
        }
      ],
      "name": "wantAmountToRebaseWithFee",
      "outputs": [
        {
          "internalType": "uint256",
          "name": "",
          "type": "uint256"
        }
      ],
      "stateMutability": "view",
      "type": "function"
    },
    {
      "inputs": [],
      "name": "wantRebasePair",
      "outputs": [
        {
          "internalType": "contract IUniswapV2Pair",
          "name": "",
          "type": "address"
        }
      ],
      "stateMutability": "view",
      "type": "function"
    },
    {
      "inputs": [
        {
          "internalType": "uint256",
          "name": "",
          "type": "uint256"
        }
      ],
      "name": "wantToRebaseRoute",
      "outputs": [
        {
          "internalType": "address",
          "name": "",
          "type": "address"
        }
      ],
      "stateMutability": "view",
      "type": "function"
    },
    {
      "inputs": [
        {
          "internalType": "uint256",
          "name": "_amount",
          "type": "uint256"
        }
      ],
      "name": "withdraw",
      "outputs": [],
      "stateMutability": "nonpayable",
      "type": "function"
    }
  ],
  "bytecode": "0x60806040523480156200001157600080fd5b50604051620029753803806200297583398181016040526101808110156200003857600080fd5b815160208301516040808501516060860151608087015160a088015160c089015160e08a01516101008b01516101208c01516101408d01805199519b9d9a9c989b979a96999598949793969295919483019291846401000000008211156200009f57600080fd5b908301906020820185811115620000b557600080fd5b8251866020820283011164010000000082111715620000d357600080fd5b82525081516020918201928201910280838360005b8381101562000102578181015183820152602001620000e8565b50505050905001604052602001805160405193929190846401000000008211156200012c57600080fd5b9083019060208201858111156200014257600080fd5b82518660208202830111640100000000821117156200016057600080fd5b82525081516020918201928201910280838360005b838110156200018f57818101518382015260200162000175565b505050509050016040525050508686868e876000620001b3620005fb60201b60201c565b600080546001600160a01b0319166001600160a01b0383169081178255604051929350917f8be0079c531659141344cd1fd0a4f28419497f9722a3daafe3b4186f6b6457e0908290a3506000805460ff60a01b191690556001600160a01b038516158015906200022b57506001600160a01b03841615155b80156200024057506001600160a01b03831615155b80156200025557506001600160a01b03821615155b80156200026a57506001600160a01b03811615155b620002a9576040805162461bcd60e51b815260206004820152600a6024820152692130204164647265737360b01b604482015290519081900360640190fd5b600180546001600160a01b03199081166001600160a01b03978816179091556002805482169587169590951790945560038054851693861693909317909255600480548416918516919091179055600580549092169083161790558b16158015906200031d57506001600160a01b03891615155b80156200033257506001600160a01b03881615155b62000371576040805162461bcd60e51b815260206004820152600a6024820152692130204164647265737360b01b604482015290519081900360640190fd5b600680546001600160a01b03199081166001600160a01b038e811691909117928390556007805483168e83161790556008805483168d8316179055600980549092168b821617909155600a85905583519116908390600090620003d057fe5b60200260200101516001600160a01b03161462000434576040805162461bcd60e51b815260206004820152601c60248201527f77616e74546f526562617365526f7574655b305d20213d2077616e7400000000604482015290519081900360640190fd5b735602df4a94eb6c680190accfa2a475621e0ddbdc6001600160a01b0316826001845103815181106200046357fe5b60200260200101516001600160a01b031614620004b25760405162461bcd60e51b8152600401808060200182810382526026815260200180620029196026913960400191505060405180910390fd5b8151620004c790600b90602085019062000af5565b50735602df4a94eb6c680190accfa2a475621e0ddbdc6001600160a01b031681600081518110620004f457fe5b60200260200101516001600160a01b031614620005435760405162461bcd60e51b8152600401808060200182810382526023815260200180620028cc6023913960400191505060405180910390fd5b60065481516001600160a01b0390911690829060001981019081106200056557fe5b60200260200101516001600160a01b031614620005c9576040805162461bcd60e51b815260206004820152601f60248201527f726562617365546f57616e74526f7574655b6c6173745d20213d2077616e7400604482015290519081900360640190fd5b8051620005de90600c90602084019062000af5565b50620005e9620005ff565b50505050505050505050505062000b80565b3390565b6003546006546200062c916001600160a01b039182169116600019620006e2602090811b6200122417901c565b6008546200066890735602df4a94eb6c680190accfa2a475621e0ddbdc906001600160a01b0316600019620006e2602090811b6200122417901c565b600354620006a490735602df4a94eb6c680190accfa2a475621e0ddbdc906001600160a01b0316600019620006e2602090811b6200122417901c565b600954620006e090738e2549225e21b1da105563d419d5689b80343e01906001600160a01b0316600019620006e2602090811b6200122417901c565b565b8015806200076c575060408051636eb1769f60e11b81523060048201526001600160a01b03848116602483015291519185169163dd62ed3e91604480820192602092909190829003018186803b1580156200073c57600080fd5b505afa15801562000751573d6000803e3d6000fd5b505050506040513d60208110156200076857600080fd5b5051155b620007a95760405162461bcd60e51b81526004018080602001828103825260368152602001806200293f6036913960400191505060405180910390fd5b604080516001600160a01b038416602482015260448082018490528251808303909101815260649091019091526020810180516001600160e01b0390811663095ea7b360e01b17909152620008019185916200080616565b505050565b606062000862826040518060400160405280602081526020017f5361666545524332303a206c6f772d6c6576656c2063616c6c206661696c6564815250856001600160a01b0316620008c260201b6200133c179092919060201c565b80519091501562000801578080602001905160208110156200088357600080fd5b5051620008015760405162461bcd60e51b815260040180806020018281038252602a815260200180620028ef602a913960400191505060405180910390fd5b6060620008d38484600085620008dd565b90505b9392505050565b606082471015620009205760405162461bcd60e51b8152600401808060200182810382526026815260200180620028a66026913960400191505060405180910390fd5b6200092b8562000a45565b6200097d576040805162461bcd60e51b815260206004820152601d60248201527f416464726573733a2063616c6c20746f206e6f6e2d636f6e7472616374000000604482015290519081900360640190fd5b60006060866001600160a01b031685876040518082805190602001908083835b60208310620009be5780518252601f1990920191602091820191016200099d565b6001836020036101000a03801982511681845116808217855250505050505090500191505060006040518083038185875af1925050503d806000811462000a22576040519150601f19603f3d011682016040523d82523d6000602084013e62000a27565b606091505b50909250905062000a3a82828662000a4b565b979650505050505050565b3b151590565b6060831562000a5c575081620008d6565b82511562000a6d5782518084602001fd5b8160405162461bcd60e51b81526004018080602001828103825283818151815260200191508051906020019080838360005b8381101562000ab957818101518382015260200162000a9f565b50505050905090810190601f16801562000ae75780820380516001836020036101000a031916815260200191505b509250505060405180910390fd5b82805482825590600052602060002090810192821562000b4d579160200282015b8281111562000b4d57825182546001600160a01b0319166001600160a01b0390911617825560209092019160019091019062000b16565b5062000b5b92915062000b5f565b5090565b5b8082111562000b5b5780546001600160a01b031916815560010162000b60565b611d168062000b906000396000f3fe608060405234801561001057600080fd5b506004361061021c5760003560e01c80637542ff9511610125578063c7b9d530116100ad578063e72c2fcc1161007c578063e72c2fcc14610471578063f2fde38b14610479578063fbfa77cf1461049f578063fd5828b0146104a7578063ff1bc761146104af5761021c565b8063c7b9d53014610400578063cdda12c414610426578063d0e30db014610443578063d92f3d731461044b5761021c565b806392a8b6dd116100f457806392a8b6dd146103c3578063a948ed26146103cb578063aced1661146103e8578063ad7a672f146103f0578063c1a3d44c146103f85761021c565b80637542ff9514610379578063754f27a61461038157806389d46d441461039e5780638da5cb5b146103bb5761021c565b806341b3d185116101a85780635c975abb116101775780635c975abb146103015780636817031b1461031d578063712d739614610343578063715018a61461034b578063748747e6146103535761021c565b806341b3d185146102e157806345105f9b146102e9578063573fef0a146102f15780635c2d8040146102f95761021c565b8063257ae0de116101ef578063257ae0de1461025d578063274027e1146102655780632e1a7d4d1461028d57806338efebd3146102aa57806340e3a115146102c45761021c565b80630aba809e146102215780631f1fcd51146102455780631fe4a6861461024d57806324ce273514610255575b600080fd5b6102296104cc565b604080516001600160a01b039092168252519081900360200190f35b6102296104db565b6102296104ea565b6102296104f9565b610229610511565b61028b6004803603602081101561027b57600080fd5b50356001600160a01b0316610520565b005b61028b600480360360208110156102a357600080fd5b50356105ec565b6102b2610710565b60408051918252519081900360200190f35b610229600480360360208110156102da57600080fd5b503561071f565b6102b2610746565b6102b261074c565b61028b6107d2565b6102296107d4565b6103096107e3565b604080519115158252519081900360200190f35b61028b6004803603602081101561033357600080fd5b50356001600160a01b03166107f3565b6102b26108bf565b61028b610914565b61028b6004803603602081101561036957600080fd5b50356001600160a01b03166109c0565b610229610ac9565b6102296004803603602081101561039757600080fd5b5035610ad8565b6102b2600480360360208110156103b457600080fd5b5035610ae5565b610229610c65565b610229610c74565b6102b2600480360360208110156103e157600080fd5b5035610c8c565b610229610d26565b6102b2610d35565b6102b2610d7a565b61028b6004803603602081101561041657600080fd5b50356001600160a01b0316610dc5565b6102b26004803603602081101561043c57600080fd5b5035610e7c565b61028b610f2e565b61028b6004803603602081101561046157600080fd5b50356001600160a01b0316610f87565b610229611053565b61028b6004803603602081101561048f57600080fd5b50356001600160a01b0316611062565b610229611164565b6102b2611173565b6102b2600480360360208110156104c557600080fd5b5035611180565b6007546001600160a01b031681565b6006546001600160a01b031681565b6002546001600160a01b031681565b735602df4a94eb6c680190accfa2a475621e0ddbdc81565b6003546001600160a01b031681565b610528611355565b6001600160a01b0316610539610c65565b6001600160a01b031614610582576040805162461bcd60e51b81526020600482018190526024820152600080516020611c61833981519152604482015290519081900360640190fd5b6001600160a01b0381166105ca576040805162461bcd60e51b815260206004820152600a6024820152692130204164647265737360b01b604482015290519081900360640190fd5b600580546001600160a01b0319166001600160a01b0392909216919091179055565b6004546001600160a01b03163314610634576040805162461bcd60e51b81526020600482015260066024820152650855985d5b1d60d21b604482015290519081900360640190fd5b600061063e610d7a565b9050818110156106b557600061065c6106578484611359565b611180565b9050600061066861074c565b90508181101561068f5761068461067f8383611359565b6113bb565b61068c61074c565b91505b61069882611482565b836106a1610d7a565b10156106b2576106af610d7a565b93505b50505b6004546006546106d2916001600160a01b03918216911684611627565b7f5b6b431d4476a211bb7d41c20d1aab9ae2321deee0d20be3d9fc9b1093fa6e3d6106fb611173565b60408051918252519081900360200190a15050565b600061071a610d7a565b905090565b600c818154811061072c57fe5b6000918252602090912001546001600160a01b0316905081565b600a5481565b604080516370a0823160e01b81523060048201529051600091735602df4a94eb6c680190accfa2a475621e0ddbdc916370a0823191602480820192602092909190829003018186803b1580156107a157600080fd5b505afa1580156107b5573d6000803e3d6000fd5b505050506040513d60208110156107cb57600080fd5b5051905090565b565b6005546001600160a01b031681565b600054600160a01b900460ff1690565b6107fb611355565b6001600160a01b031661080c610c65565b6001600160a01b031614610855576040805162461bcd60e51b81526020600482018190526024820152600080516020611c61833981519152604482015290519081900360640190fd5b6001600160a01b03811661089d576040805162461bcd60e51b815260206004820152600a6024820152692130204164647265737360b01b604482015290519081900360640190fd5b600480546001600160a01b0319166001600160a01b0392909216919091179055565b604080516370a0823160e01b81523060048201529051600091738e2549225e21b1da105563d419d5689b80343e01916370a0823191602480820192602092909190829003018186803b1580156107a157600080fd5b61091c611355565b6001600160a01b031661092d610c65565b6001600160a01b031614610976576040805162461bcd60e51b81526020600482018190526024820152600080516020611c61833981519152604482015290519081900360640190fd5b600080546040516001600160a01b03909116907f8be0079c531659141344cd1fd0a4f28419497f9722a3daafe3b4186f6b6457e0908390a3600080546001600160a01b0319169055565b6109c8610c65565b6001600160a01b0316336001600160a01b031614806109f157506001546001600160a01b031633145b610a2d576040805162461bcd60e51b815260206004820152600860248201526710b6b0b730b3b2b960c11b604482015290519081900360640190fd5b6001600160a01b038116610a75576040805162461bcd60e51b815260206004820152600a6024820152692130204164647265737360b01b604482015290519081900360640190fd5b600180546001600160a01b0383166001600160a01b0319909116811790915560408051918252517f8b67cf08b3b4a582cdf414f29895fde3e3f03a3bf26373a22a8b9bd89e7574889181900360200190a150565b6009546001600160a01b031681565b600b818154811061072c57fe5b6003546040805163d06ca61f60e01b81526004810184815260248201928352600b8054604484018190526000956001600160a01b03169463d06ca61f9488949260649091019084908015610b6257602002820191906000526020600020905b81546001600160a01b03168152600190910190602001808311610b44575b5050935050505060006040518083038186803b158015610b8157600080fd5b505afa158015610b95573d6000803e3d6000fd5b505050506040513d6000823e601f3d908101601f191682016040526020811015610bbe57600080fd5b8101908080516040519392919084640100000000821115610bde57600080fd5b908301906020820185811115610bf357600080fd5b8251866020820283011164010000000082111715610c1057600080fd5b82525081516020918201928201910280838360005b83811015610c3d578181015183820152602001610c25565b50505050905001604052505050600181518110610c5657fe5b60200260200101519050919050565b6000546001600160a01b031690565b738e2549225e21b1da105563d419d5689b80343e0181565b6003546040805163d06ca61f60e01b81526004810184815260248201928352600c8054604484018190526000956001600160a01b03169463d06ca61f9488949260649091019084908015610b62576020028201919060005260206000209081546001600160a01b03168152600190910190602001808311610b44575050935050505060006040518083038186803b158015610b8157600080fd5b6001546001600160a01b031681565b6000806000610d53610d456108bf565b610d4d61074c565b90611679565b90508015610d6757610d6481610e7c565b91505b610d7382610d4d610d7a565b9250505090565b600654604080516370a0823160e01b815230600482015290516000926001600160a01b0316916370a08231916024808301926020929190829003018186803b1580156107a157600080fd5b6002546001600160a01b03163314610e12576040805162461bcd60e51b815260206004820152600b60248201526a085cdd1c985d1959da5cdd60aa1b604482015290519081900360640190fd5b6001600160a01b038116610e5a576040805162461bcd60e51b815260206004820152600a6024820152692130204164647265737360b01b604482015290519081900360640190fd5b600280546001600160a01b0319166001600160a01b0392909216919091179055565b6000806000600760009054906101000a90046001600160a01b03166001600160a01b0316630902f1ac6040518163ffffffff1660e01b815260040160606040518083038186803b158015610ecf57600080fd5b505afa158015610ee3573d6000803e3d6000fd5b505050506040513d6060811015610ef957600080fd5b5080516020909101516001600160701b039182169350169050610f2682610f2086846116d3565b9061172c565b949350505050565b6000610f38610710565b90508015610f8457610f4981611793565b7f4d6ce1e535dbade1c23defba91e23b8f791ce5edc0cc320257a2b364e4e38426610f72611173565b60408051918252519081900360200190a15b50565b610f8f611355565b6001600160a01b0316610fa0610c65565b6001600160a01b031614610fe9576040805162461bcd60e51b81526020600482018190526024820152600080516020611c61833981519152604482015290519081900360640190fd5b6001600160a01b038116611031576040805162461bcd60e51b815260206004820152600a6024820152692130204164647265737360b01b604482015290519081900360640190fd5b600380546001600160a01b0319166001600160a01b0392909216919091179055565b6008546001600160a01b031681565b61106a611355565b6001600160a01b031661107b610c65565b6001600160a01b0316146110c4576040805162461bcd60e51b81526020600482018190526024820152600080516020611c61833981519152604482015290519081900360640190fd5b6001600160a01b0381166111095760405162461bcd60e51b8152600401808060200182810382526026815260200180611bf46026913960400191505060405180910390fd5b600080546040516001600160a01b03808516939216917f8be0079c531659141344cd1fd0a4f28419497f9722a3daafe3b4186f6b6457e091a3600080546001600160a01b0319166001600160a01b0392909216919091179055565b6004546001600160a01b031681565b600061071a610d456108bf565b6000806000600760009054906101000a90046001600160a01b03166001600160a01b0316630902f1ac6040518163ffffffff1660e01b815260040160606040518083038186803b1580156111d357600080fd5b505afa1580156111e7573d6000803e3d6000fd5b505050506040513d60608110156111fd57600080fd5b5080516020909101516001600160701b039182169350169050610f2681610f2086856116d3565b8015806112aa575060408051636eb1769f60e11b81523060048201526001600160a01b03848116602483015291519185169163dd62ed3e91604480820192602092909190829003018186803b15801561127c57600080fd5b505afa158015611290573d6000803e3d6000fd5b505050506040513d60208110156112a657600080fd5b5051155b6112e55760405162461bcd60e51b8152600401808060200182810382526036815260200180611cab6036913960400191505060405180910390fd5b604080516001600160a01b038416602482015260448082018490528251808303909101815260649091019091526020810180516001600160e01b031663095ea7b360e01b1790526113379084906117b3565b505050565b606061134b8484600085611864565b90505b9392505050565b3390565b6000828211156113b0576040805162461bcd60e51b815260206004820152601e60248201527f536166654d6174683a207375627472616374696f6e206f766572666c6f770000604482015290519081900360640190fd5b508082035b92915050565b806113c557610f84565b6113cd6108bf565b8111156113df576113dc6108bf565b90505b600954604080516327afaa2360e21b8152600481018490526001602482015290516001600160a01b0390921691639ebea88c9160448082019260009290919082900301818387803b15801561143357600080fd5b505af1158015611447573d6000803e3d6000fd5b50506040805184815290517ff1f1db1ecefb0a90b3cd6a1903d29374b4a935df69fd25c7fc6ed397d3683c269350908190036020019150a150565b61148a61074c565b81111561149c5761149961074c565b90505b6003546040516338ed173960e01b8152600481018381526000602483018190523060648401819052426084850181905260a060448601908152600c805460a488018190526001600160a01b03909816976338ed1739978a97929594939160c4909101908690801561153657602002820191906000526020600020905b81546001600160a01b03168152600190910190602001808311611518575b50509650505050505050600060405180830381600087803b15801561155a57600080fd5b505af115801561156e573d6000803e3d6000fd5b505050506040513d6000823e601f3d908101601f19168201604052602081101561159757600080fd5b81019080805160405193929190846401000000008211156115b757600080fd5b9083019060208201858111156115cc57600080fd5b82518660208202830111640100000000821117156115e957600080fd5b82525081516020918201928201910280838360005b838110156116165781810151838201526020016115fe565b505050509050016040525050505050565b604080516001600160a01b038416602482015260448082018490528251808303909101815260649091019091526020810180516001600160e01b031663a9059cbb60e01b1790526113379084906117b3565b60008282018381101561134e576040805162461bcd60e51b815260206004820152601b60248201527f536166654d6174683a206164646974696f6e206f766572666c6f770000000000604482015290519081900360640190fd5b6000826116e2575060006113b5565b828202828482816116ef57fe5b041461134e5760405162461bcd60e51b8152600401808060200182810382526021815260200180611c406021913960400191505060405180910390fd5b6000808211611782576040805162461bcd60e51b815260206004820152601a60248201527f536166654d6174683a206469766973696f6e206279207a65726f000000000000604482015290519081900360640190fd5b81838161178b57fe5b049392505050565b600a548110156117a257610f84565b6117ab816119c0565b610f84611a96565b6060611808826040518060400160405280602081526020017f5361666545524332303a206c6f772d6c6576656c2063616c6c206661696c6564815250856001600160a01b031661133c9092919063ffffffff16565b8051909150156113375780806020019051602081101561182757600080fd5b50516113375760405162461bcd60e51b815260040180806020018281038252602a815260200180611c81602a913960400191505060405180910390fd5b6060824710156118a55760405162461bcd60e51b8152600401808060200182810382526026815260200180611c1a6026913960400191505060405180910390fd5b6118ae85611b49565b6118ff576040805162461bcd60e51b815260206004820152601d60248201527f416464726573733a2063616c6c20746f206e6f6e2d636f6e7472616374000000604482015290519081900360640190fd5b60006060866001600160a01b031685876040518082805190602001908083835b6020831061193e5780518252601f19909201916020918201910161191f565b6001836020036101000a03801982511681845116808217855250505050505090500191505060006040518083038185875af1925050503d80600081146119a0576040519150601f19603f3d011682016040523d82523d6000602084013e6119a5565b606091505b50915091506119b5828286611b4f565b979650505050505050565b6119c8610710565b8111156119da576119d7610710565b90505b6003546040516338ed173960e01b8152600481018381526000602483018190523060648401819052426084850181905260a060448601908152600b805460a488018190526001600160a01b03909816976338ed1739978a97929594939160c49091019086908015611536576020028201919060005260206000209081546001600160a01b031681526001909101906020018083116115185750509650505050505050600060405180830381600087803b15801561155a57600080fd5b6000611aa061074c565b905080611aad57506107d2565b6008546040805163534a7e1d60e11b81526004810184905290516001600160a01b039092169163a694fc3a9160248082019260009290919082900301818387803b158015611afa57600080fd5b505af1158015611b0e573d6000803e3d6000fd5b50506040805184815290517f227a473b70d2f893cc7659219575c030a63b5743024fe1e0c1a680e708b1525a9350908190036020019150a150565b3b151590565b60608315611b5e57508161134e565b825115611b6e5782518084602001fd5b8160405162461bcd60e51b81526004018080602001828103825283818151815260200191508051906020019080838360005b83811015611bb8578181015183820152602001611ba0565b50505050905090810190601f168015611be55780820380516001836020036101000a031916815260200191505b509250505060405180910390fdfe4f776e61626c653a206e6577206f776e657220697320746865207a65726f2061646472657373416464726573733a20696e73756666696369656e742062616c616e636520666f722063616c6c536166654d6174683a206d756c7469706c69636174696f6e206f766572666c6f774f776e61626c653a2063616c6c6572206973206e6f7420746865206f776e65725361666545524332303a204552433230206f7065726174696f6e20646964206e6f7420737563636565645361666545524332303a20617070726f76652066726f6d206e6f6e2d7a65726f20746f206e6f6e2d7a65726f20616c6c6f77616e6365a2646970667358221220fc64defff05e9ba6bdf3ddd6e8d29df8244d5a965686dc7ef92871b153e7fb7764736f6c634300060c0033416464726573733a20696e73756666696369656e742062616c616e636520666f722063616c6c726562617365546f57616e74526f7574655b305d20213d20726562617365546f6b656e5361666545524332303a204552433230206f7065726174696f6e20646964206e6f74207375636365656477616e74546f526562617365526f7574655b6c6173745d20213d20726562617365546f6b656e5361666545524332303a20617070726f76652066726f6d206e6f6e2d7a65726f20746f206e6f6e2d7a65726f20616c6c6f77616e6365",
  "linkReferences": {},
  "deployedLinkReferences": {}
}